{
  "address": "0xdfd6f9f78ea6451c90508efefe86322111565986",
  "abi": [
    {
      "inputs": [
        {
          "internalType": "address payable",
          "name": "diceGameAddress",
          "type": "address"
        }
      ],
      "stateMutability": "nonpayable",
      "type": "constructor"
    },
    {
      "inputs": [
        {
          "internalType": "address",
          "name": "owner",
          "type": "address"
        }
      ],
      "name": "OwnableInvalidOwner",
      "type": "error"
    },
    {
      "inputs": [
        {
          "internalType": "address",
          "name": "account",
          "type": "address"
        }
      ],
      "name": "OwnableUnauthorizedAccount",
      "type": "error"
    },
    {
      "anonymous": false,
      "inputs": [
        {
          "indexed": true,
          "internalType": "address",
          "name": "previousOwner",
          "type": "address"
        },
        {
          "indexed": true,
          "internalType": "address",
          "name": "newOwner",
          "type": "address"
        }
      ],
      "name": "OwnershipTransferred",
      "type": "event"
    },
    {
      "inputs": [],
      "name": "diceGame",
      "outputs": [
        {
          "internalType": "contract DiceGame",
          "name": "",
          "type": "address"
        }
      ],
      "stateMutability": "view",
      "type": "function"
    },
    {
      "inputs": [],
      "name": "owner",
      "outputs": [
        {
          "internalType": "address",
          "name": "",
          "type": "address"
        }
      ],
      "stateMutability": "view",
      "type": "function"
    },
    {
      "inputs": [],
      "name": "renounceOwnership",
      "outputs": [],
      "stateMutability": "nonpayable",
      "type": "function"
    },
    {
      "inputs": [],
      "name": "riggedRoll",
      "outputs": [],
      "stateMutability": "nonpayable",
      "type": "function"
    },
    {
      "inputs": [
        {
          "internalType": "address",
          "name": "newOwner",
          "type": "address"
        }
      ],
      "name": "transferOwnership",
      "outputs": [],
      "stateMutability": "nonpayable",
      "type": "function"
    },
    {
      "inputs": [
        {
          "internalType": "address payable",
          "name": "_addr",
          "type": "address"
        },
        {
          "internalType": "uint256",
          "name": "_amount",
          "type": "uint256"
        }
      ],
      "name": "withdraw",
      "outputs": [],
      "stateMutability": "nonpayable",
      "type": "function"
    },
    {
      "stateMutability": "payable",
      "type": "receive"
    }
  ],
  "transactionHash": "0x0c54695187106f98f2af80aa185acd030a16ca0fc6d89678c64caa052bafd1aa",
  "args": [
    "0x012e8707ed8273166F3ADDFB697c98873D5B3573"
  ],
  "numDeployments": 1,
  "solcInputHash": "9af9ec489bb88c27a60347a7dfdc50ea",
  "bytecode": "0x608060405234801561001057600080fd5b5060405161074c38038061074c83398101604081905261002f916100d4565b338061005557604051631e4fbdf760e01b81526000600482015260240160405180910390fd5b61005e81610084565b50600180546001600160a01b0319166001600160a01b0392909216919091179055610104565b600080546001600160a01b038381166001600160a01b0319831681178455604051919092169283917f8be0079c531659141344cd1fd0a4f28419497f9722a3daafe3b4186f6b6457e09190a35050565b6000602082840312156100e657600080fd5b81516001600160a01b03811681146100fd57600080fd5b9392505050565b610639806101136000396000f3fe6080604052600436106100595760003560e01c80636b5e97f814610065578063715018a61461007c5780638da5cb5b146100915780638e288fd1146100c7578063f2fde38b146100e7578063f3fef3a31461010757600080fd5b3661006057005b600080fd5b34801561007157600080fd5b5061007a610127565b005b34801561008857600080fd5b5061007a610325565b34801561009d57600080fd5b506000546001600160a01b03165b6040516001600160a01b03909116815260200160405180910390f35b3480156100d357600080fd5b506001546100ab906001600160a01b031681565b3480156100f357600080fd5b5061007a610102366004610551565b610339565b34801561011357600080fd5b5061007a610122366004610575565b610377565b66071afd498d000047101561018f5760405162461bcd60e51b8152602060048201526024808201527f526967676564526f6c6c3a20636f6e74726163742062616c616e636520746f6f604482015263206c6f7760e01b60648201526084015b60405180910390fd5b600061019c6001436105a1565b6001546040805163057ff68760e51b815290519240935060009284926001600160a01b031691829163affed0e0916004808201926020929091908290030181865afa1580156101ef573d6000803e3d6000fd5b505050506040513d601f19601f8201168201806040525081019061021391906105c8565b6040516020016102489392919092835260609190911b6bffffffffffffffffffffffff19166020830152603482015260540190565b60408051601f1981840301815291905280516020909101209050600061026f6010836105e1565b905060058111156102b75760405162461bcd60e51b8152602060048201526012602482015271139bdd0818481dda5b9b9a5b99c81c9bdb1b60721b6044820152606401610186565b60015460408051633ebc4ef760e11b8152905166071afd498d0000926001600160a01b031691637d789dee91849160048082019260009290919082900301818588803b15801561030657600080fd5b505af115801561031a573d6000803e3d6000fd5b505050505050505050565b61032d6104bf565b61033760006104ec565b565b6103416104bf565b6001600160a01b03811661036b57604051631e4fbdf760e01b815260006004820152602401610186565b610374816104ec565b50565b61037f6104bf565b6001600160a01b0382166103d55760405162461bcd60e51b815260206004820152601f60248201527f43616e6e6f7420776974686472617720746f207a65726f2061646472657373006044820152606401610186565b478111156104255760405162461bcd60e51b815260206004820152601d60248201527f496e73756666696369656e7420636f6e74726163742062616c616e63650000006044820152606401610186565b6000826001600160a01b03168260405160006040518083038185875af1925050503d8060008114610472576040519150601f19603f3d011682016040523d82523d6000602084013e610477565b606091505b50509050806104ba5760405162461bcd60e51b815260206004820152600f60248201526e15da5d1a191c985dc819985a5b1959608a1b6044820152606401610186565b505050565b6000546001600160a01b031633146103375760405163118cdaa760e01b8152336004820152602401610186565b600080546001600160a01b038381166001600160a01b0319831681178455604051919092169283917f8be0079c531659141344cd1fd0a4f28419497f9722a3daafe3b4186f6b6457e09190a35050565b6001600160a01b038116811461037457600080fd5b60006020828403121561056357600080fd5b813561056e8161053c565b9392505050565b6000806040838503121561058857600080fd5b82356105938161053c565b946020939093013593505050565b818103818111156105c257634e487b7160e01b600052601160045260246000fd5b92915050565b6000602082840312156105da57600080fd5b5051919050565b6000826105fe57634e487b7160e01b600052601260045260246000fd5b50069056fea2646970667358221220605ebe5c3d11a715a6b5e3af397a5cb4c1d0a647212ec7bd09b83eaf1e018e1864736f6c63430008140033",
  "devdoc": {
    "errors": {
      "OwnableInvalidOwner(address)": [
        {
          "details": "The owner is not a valid owner account. (eg. `address(0)`)"
        }
      ],
      "OwnableUnauthorizedAccount(address)": [
        {
          "details": "The caller account is not authorized to perform an operation."
        }
      ]
    },
    "kind": "dev",
    "methods": {
      "owner()": {
        "details": "Returns the address of the current owner."
      },
      "renounceOwnership()": {
        "details": "Leaves the contract without owner. It will not be possible to call `onlyOwner` functions. Can only be called by the current owner. NOTE: Renouncing ownership will leave the contract without an owner, thereby disabling any functionality that is only available to the owner."
      },
      "transferOwnership(address)": {
        "details": "Transfers ownership of the contract to a new account (`newOwner`). Can only be called by the current owner."
      }
    },
    "version": 1
  },
  "userdoc": {
    "kind": "user",
    "methods": {},
    "version": 1
  },
  "storageLayout": {
    "storage": [
      {
        "astId": 8,
        "contract": "contracts/RiggedRoll.sol:RiggedRoll",
        "label": "_owner",
        "offset": 0,
        "slot": "0",
        "type": "t_address"
      },
      {
        "astId": 343,
        "contract": "contracts/RiggedRoll.sol:RiggedRoll",
        "label": "diceGame",
        "offset": 0,
        "slot": "1",
        "type": "t_contract(DiceGame)333"
      }
    ],
    "types": {
      "t_address": {
        "encoding": "inplace",
        "label": "address",
        "numberOfBytes": "20"
      },
      "t_contract(DiceGame)333": {
        "encoding": "inplace",
        "label": "contract DiceGame",
        "numberOfBytes": "20"
      }
    }
  }
}